{
    "abi": [
        {
            "type": "function",
            "name": "authorisedInvokeTransfer",
            "inputs": [
                {
                    "name": "calls",
                    "type": "tuple[]",
                    "internalType": "struct AuthorizedTransfer.Call[]",
                    "components": [
                        {
                            "name": "target",
                            "type": "address",
                            "internalType": "address"
                        },
                        {
                            "name": "value",
                            "type": "uint256",
                            "internalType": "uint256"
                        },
                        {
                            "name": "data",
                            "type": "bytes",
                            "internalType": "bytes"
                        }
                    ]
                },
                {
                    "name": "commitEncoded",
                    "type": "bytes",
                    "internalType": "bytes"
                },
                {
                    "name": "v",
                    "type": "uint8",
                    "internalType": "uint8"
                },
                {
                    "name": "r",
                    "type": "bytes32",
                    "internalType": "bytes32"
                },
                {
                    "name": "s",
                    "type": "bytes32",
                    "internalType": "bytes32"
                },
                {
                    "name": "owner",
                    "type": "address",
                    "internalType": "address"
                }
            ],
            "outputs": [],
            "stateMutability": "nonpayable"
        },
        {
            "type": "function",
            "name": "getDigest",
            "inputs": [
                {
                    "name": "commit",
                    "type": "bytes32",
                    "internalType": "bytes32"
                }
            ],
            "outputs": [
                {
                    "name": "digest",
                    "type": "bytes32",
                    "internalType": "bytes32"
                }
            ],
            "stateMutability": "view"
        }
    ],
    "bytecode": {
        "object": "0x608060405234801561001057600080fd5b50610511806100206000396000f3fe608060405234801561001057600080fd5b50600436106100365760003560e01c8063cc99713e1461003b578063f9613ab214610050575b600080fd5b61004e6100493660046102e6565b6100b3565b005b6100a161005e3660046103b8565b604051600160fa1b602082015246602182015230604182015260618101829052600090608101604051602081830303815290604052805190602001209050919050565b60405190815260200160405180910390f35b60016000808282546100c591906103d1565b909155506100e19050816100d987896103f8565b8686866101cd565b5060005b878110156101c2576101b989898381811061010257610102610416565b9050602002810190610114919061042c565b61012290602081019061044c565b8a8a8481811061013457610134610416565b9050602002810190610146919061042c565b61015490604081019061046e565b8080601f0160208091040260200160405190810160405280939291908181526020018383808284376000920191909152508e92508d915086905081811061019d5761019d610416565b90506020028101906101af919061042c565b602001355a61022d565b506001016100e5565b505050505050505050565b6000806101d985610247565b60405160f89190911b6001600160f81b0319166020820152602181018590526041810184905260618101879052608101604051602081830303815290604052905080516020820188f6979650505050505050565b60008060008551602087016000878a88f795945050505050565b600060238210600181146102635760026023840306915061026a565b601c831491505b50919050565b60008083601f84011261028257600080fd5b50813567ffffffffffffffff81111561029a57600080fd5b6020830191508360208285010111156102b257600080fd5b9250929050565b803560ff811681146102ca57600080fd5b919050565b80356001600160a01b03811681146102ca57600080fd5b60008060008060008060008060c0898b03121561030257600080fd5b883567ffffffffffffffff8082111561031a57600080fd5b818b0191508b601f83011261032e57600080fd5b81358181111561033d57600080fd5b8c60208260051b850101111561035257600080fd5b60209283019a509850908a0135908082111561036d57600080fd5b5061037a8b828c01610270565b909750955061038d905060408a016102b9565b935060608901359250608089013591506103a960a08a016102cf565b90509295985092959890939650565b6000602082840312156103ca57600080fd5b5035919050565b808201808211156103f257634e487b7160e01b600052601160045260246000fd5b92915050565b803560208310156103f257600019602084900360031b1b1692915050565b634e487b7160e01b600052603260045260246000fd5b60008235605e1983360301811261044257600080fd5b9190910192915050565b60006020828403121561045e57600080fd5b610467826102cf565b9392505050565b6000808335601e1984360301811261048557600080fd5b83018035915067ffffffffffffffff8211156104a057600080fd5b6020019150368190038213156102b257600080fdfea2646970667358221220c103c15de6d4fc7553b190cc5b444a8c705b6e4a65f3e05beccb59efc5ee110e64736f6c637828302e382e32342d646576656c6f702e323032342e342e32302b636f6d6d69742e33353263363032330059",
        "linkReferences": {}
    },
    "methodIdentifiers": {
        "authorisedInvokeTransfer((address,uint256,bytes)[],bytes,uint8,bytes32,bytes32,address)": "cc99713e",
        "getDigest(bytes32)": "f9613ab2"
    },
    "id": 25
}