{"abi":[{"type":"function","name":"lastSender","inputs":[],"outputs":[{"name":"","type":"address","internalType":"address"}],"stateMutability":"view"},{"type":"function","name":"recordSender","inputs":[],"outputs":[],"stateMutability":"nonpayable"},{"type":"function","name":"reset","inputs":[],"outputs":[],"stateMutability":"nonpayable"}],"bytecode":{"object":"0x608060405234801561001057600080fd5b5060f78061001f6000396000f3fe6080604052348015600f57600080fd5b5060043610603c5760003560e01c8063256fec88146041578063d826f88f14606f578063f1627ecf146085575b600080fd5b6000546053906001600160a01b031681565b6040516001600160a01b03909116815260200160405180910390f35b6083600080546001600160a01b0319169055565b005b6083600080546001600160a01b0319163317905556fea26469706673582212208354fffada562d4a64971acfa080f052e7f002240f33d09b9c1ffa82f764e0e364736f6c637828302e382e32342d646576656c6f702e323032342e342e32352b636f6d6d69742e31383761313738610059","linkReferences":{}},"methodIdentifiers":{"lastSender()":"256fec88","recordSender()":"f1627ecf","reset()":"d826f88f"},"id":26}